:0A059800000102020303040405053C
:10008000900E201211AD00000000C203C200C20297
:10009000C20112062A7E057FA2900E02EEF0A3EFA7
:1000A000F0900E0A7405F0A374B4F0900E0074057D
:1000B000F0A374BEF0900E087405F0A374DEF09007
:1000C0000E0C7405F0A374FEF090E680E030E7209B
:1000D000900E00E0FDA3E0900E04CDF0A3EDF090B3
:1000E0000E08E0FDA3E0900E06CDF0A3EDF0801E1B
:1000F000900E08E0FDA3E0900E04CDF0A3EDF0908B
:100100000E00E0FDA3E0900E06CDF0A3EDF0EE545E
:10011000E0700302028F900E24E4F0A37480F07E5E
:10012000057FA2A3EEF0A3EFF0C374289FFF74062F
:100130009ECF2402CF3400FEE4FCFD900E1C121171
:10014000A1900E181211AD00000000900E1CE0FCF2
:10015000A3E0FDA3E0FEA3E0FF900E18E0F8A3E00B
:10016000F9A3E0FAA3E0FBC31211905040900E1ADD
:10017000E0FEA3E0FF900E24E0FCA3E02FF582EE6A
:100180003CF58374CDF0900E18E0FCA3E0FDA3E0F5
:10019000FEA3E07A00790078002401FFEA3EFEE940
:1001A0003DFDE83CFC900E181211A1809E900E18A7
:1001B0001211AD00000000900E1CE0FCA3E0FDA3B6
:1001C000E0FEA3E0FF900E18E0F8A3E0F9A3E0FA48
:1001D000A3E0FBC3121190504F900E1AE0FEA3E073
:1001E000FF900E26E0FCA3E02FF582EE3CF583E0C5
:1001F000FD900E24E0FAA3E02FF582EE3AF583EDB0
:10020000F0900E18E0FCA3E0FDA3E0FEA3E07A006E
:10021000790078002401FFEA3EFEE93DFDE83CFC60
:10022000900E181211A1808F900E24E0FFA3E09091
:100230000E02CFF0A3EFF074A22480FF740534FF08
:10024000FEC3900E0BE09FF0900E0AE09EF0C3906C
:100250000E05E09FF0900E04E09EF0C3900E07E0C4
:100260009FF0900E06E09EF0C3900E01E09FF0908C
:100270000E00E09EF0C3900E09E09FF0900E08E0A3
:100280009EF0C3900E0DE09FF0900E0CE09EF0D219
:10029000E843D82090E668E04409F090E65CE0444A
:1002A0003DF0D2AF90E680E054F7F0538EF8C203F1
:1002B0003001051202EAC20130032912064F502410
:1002C000C203120CA920001690E682E030E704E099
:1002D00020E1EF90E682E030E604E020E0E4120C5A
:0902E0007D12065112064E80C782
:0102E90022F2
:1002EA0090E6B9E070030203D514700302047E2479
:1002FA00FE700302051424FB70030203CF1470037B
:10030A000203C91470030203BD1470030203C32459
:10031A00056003020580120653400302058C90E62D
:10032A00BBE024FE603414605724FD601A14603D5B
:10033A0024067075900E02E090E6B3F0900E03E08A
:10034A0090E6B4F002058C900E0AE090E6B3F090C5
:10035A000E0BE090E6B4F002058C900E04E090E6F5
:10036A00B3F0900E05E090E6B4F002058C900E060C
:10037A00E090E6B3F0900E07E090E6B4F002058C48
:10038A0090E6BAE0FF120FF6AA06A9077B01EA492E
:10039A00600DEE90E6B3F0EF90E6B4F002058C90B3
:1003AA00E6A0E04401F002058C90E6A0E04401F0EA
:1003BA0002058C12067D02058C12067302058C1248
:1003CA00065502058C12065F02058C12069140033F
:1003DA0002058C90E6B8E0247F602B14603C24026E
:1003EA006003020474A200E433FF25E0FFA202E4E2
:1003FA00334F90E740F0E4A3F090E68AF090E68B62
:10040A007402F002058CE490E740F0A3F090E68ACB
:10041A00F090E68B7402F002058C90E6BCE0547E04
:10042A00FF7E00E0D3948040067C007D0180047C3E
:10043A00007D00EC4EFEED4F2498F582EE3405F572
:10044A0083E493FF3395E0FEEF24A1FFEE34E68FB9
:10045A0082F583E0540190E740F0E4A3F090E68A45
:10046A00F090E68B7402F002058C90E6A0E044015D
:10047A00F002058C120693400302058C90E6B8E060
:10048A0024FE601D2402600302058C90E6BAE0B4E3
:10049A000105C20002058C90E6A0E04401F00205C5
:1004AA008C90E6BAE0705990E6BCE0547EFF7E007C
:1004BA00E0D3948040067C007D0180047C007D00AE
:1004CA00EC4EFEED4F2498F582EE3405F583E49365
:1004DA00FF3395E0FEEF24A1FFEE34E68F82F58329
:1004EA00E054FEF090E6BCE05480FF131313541F4F
:1004FA00FFE0540F2F90E683F0E04420F002058CD1
:10050A0090E6A0E04401F002058C12069550739023
:10051A00E6B8E024FE60202402706790E6BAE0B4F0
:10052A000104D200805C90E6BAE06402605490E66E
:10053A00A0E04401F0804B90E6BCE0547EFF7E00D0
:10054A00E0D3948040067C007D0180047C007D001D
:10055A00EC4EFEED4F2498F582EE3405F583E493D4
:10056A00FF3395E0FEEF24A1FFEE34E68F82F58398
:10057A00E04401F0800C120697500790E6A0E04490
:09058A0001F090E6A0E04480F0CD
:010593002245
:030033000205942F
:0405940053D8EF3217
:1005A2001201000200000040470502100000010293
:1005B20000010A06000200000040010009022000BA
:1005C200010100A0320904000002FF00000007053B
:1005D2000202000200070586020002000902200052
:1005E200010100A0320904000002FF00000007051B
:1005F20001024000000705810240000004030904D3
:1006020010034300790070007200650073007300EC
:10061200160345005A002D005500530042002000E9
:08062200460058003200000000
:10062A00E4900E28F0A3F0D200120E00900E28E0FB
:10063A007002A3E0600DE4FFFDFB900E2DF0A3F025
:03064A001210B6D5
:01064D00228A
:01064E002289
:02064F00D322B4
:02065100D322B2
:02065300D322B0
:0A06550090E6BAE0900E10F0D322F8
:10065F00900E10E090E740F0E490E68AF090E68B81
:04066F0004F0D3229E
:0A06730090E6BAE0900E0EF0D322DC
:10067D00900E0EE090E740F0E490E68AF090E68B65
:04068D0004F0D32280
:02069100D32272
:02069300D32270
:02069500D3226E
:1006970090E678E05410FFC4540F4450900E0FF0CA
:1006A700E013E433900E11F090E6B9E0245EB40B4A
:1006B7000040030209DB9006C4F82828730207C923
:1006C7000207C902073B0206E502070102072102EA
:1006D700076C0207BC020746020759020792900EF1
:1006E70011E090E740F0E490E68AF090E68B04F0A2
:1006F70090E6A0E04480F00209DB90E600E0FFC44A
:10070700540F90E740F0E490E68AF090E68B04F00F
:1007170090E6A0E04480F00209DB90E740740FF018
:10072700E490E68AF090E68B04F090E6A0E044803F
:10073700F00209DB90E6BAE0900E0FF00209DB90B9
:10074700E67AE054FEF0E490E68AF090E68BF00259
:1007570009DB90E67AE04401F0E490E68AF090E65F
:100767008BF00209DB90E7407407F0E490E68AF02B
:1007770090E68B04F090E6A0E04480F07FE87E03EB
:10078700120DB8D204120CCE0209DB90E6B5E05484
:10079700FEF090E6BFE090E68AF090E6BEE090E6D5
:1007A7008BF090E6BBE090E6B3F090E6BAE090E617
:1007B700B4F00209DB900E117401F0900E0FE044C3
:1007C70001F090E6BAE0FF900E28E4F0A3EFF09076
:1007D700E6BBE0FE900E28E04EF0A3E0F090E6BE08
:1007E700E0FF900E2AE4F0A3EFF090E6BFE0FE9062
:1007F7000E2AE04EF0A3E0F090E6B8E064C0600394
:10080700020919900E2AE07002A3E070030209DBC7
:1008170090E6A0E020E1F9900E2AE0FEA3E0FFC3F6
:100827009440EE94005008A3EEF0A3EFF0800990F7
:100837000E2CE4F0A37440F090E6B9E064A3705185
:10084700900E2EF0A3F0900E2CE0FEA3E0FFA3E0A5
:10085700FCA3E0FDC39FEC9E40030208E8900E282E
:10086700E0FEA3E0F5828E832DF582EC3583F583D8
:10087700E0FF900E2FE02440F582E434E7F583EFA4
:10088700F0900E2FE004F07006900E2EE004F0803A
:10089700B5E4900E2EF0A3F0900E2CE0FEA3E0FF3F
:1008A700C3900E2FE09F900E2EE09E501EA3E024D3
:1008B70040F582E434E7F58374CDF0900E2FE00421
:1008C700F07006900E2EE004F080CD900E28E0FE2A
:1008D700A3E0FF900E2DE0FD7AE779407B40120CF4
:1008E7001AE490E68AF0900E2DE090E68BF0900ED9
:1008F7002CE0FEA3E0FF900E29E02FF0900E28E0F9
:100907003EF0C3900E2BE09FF0900E2AE09EF0027F
:10091700080A90E6B8E0644060030209DB900E2AFB
:10092700E07002A3E070030209DBE490E68AF0902E
:10093700E68BF090E6A0E020E1F990E68BE0FF90EF
:100947000E2CE4F0A3EFF090E6B9E064A3704B90AF
:100957000E2EF0A3F0900E2CE0FEA3E0FFA3E0FC28
:10096700A3E0FDC39FEC9E5047E02440F582E434AA
:10097700E7F583E0FF900E28E0FAA3E0F5828A838B
:100987002DF582EC3583F583EFF0900E2FE004F020
:100997007006900E2EE004F080BB900E28E0FEA3B8
:1009A700E0FF900E2DE0FD7AE779407B40120BCFF8
:1009B700900E2CE0FEA3E0FF900E29E02FF0900EA2
:1009C70028E03EF0C3900E2BE09FF0900E2AE09EA9
:0509D700F0020924C339
:0109DC0022F8
:1009DD00C0E0C083C082C085C084C086758600908B
:1009ED00E6B5E04401F0D2015391EF90E65D74015C
:0E09FD00F0D086D084D085D082D083D0E03276
:100A0B00C0E0C083C082C085C084C0867586005399
:100A1B0091EF90E65D7404F0D086D084D085D082BF
:050A2B00D083D0E03291
:100A3000C0E0C083C082C085C084C0867586005374
:100A400091EF90E65D7402F0D086D084D085D0829C
:050A5000D083D0E0326C
:100A5500C0E0C083C082C085C084C086758600C0E2
:100A65000790E680E030E720900E00E0FFA3E090DD
:100A75000E04CFF0A3EFF0900E08E0FFA3E0900E78
:100A850006CFF0A3EFF0801E900E08E0FFA3E090E4
:100A95000E04CFF0A3EFF0900E00E0FFA3E0900E60
:100AA50006CFF0A3EFF05391EF90E65D7410F0D010
:0E0AB50007D086D084D085D082D083D0E032A6
:100AC300C0E0C083C082C085C084C086758600D262
:100AD300035391EF90E65D7408F0D086D084D085FF
:070AE300D082D083D0E03285
:100AEA00C0E0C083C082C085C084C086758600C04D
:100AFA000790E680E030E720900E00E0FFA3E09048
:100B0A000E04CFF0A3EFF0900E08E0FFA3E0900EE2
:100B1A0006CFF0A3EFF0801E900E08E0FFA3E0904E
:100B2A000E04CFF0A3EFF0900E00E0FFA3E0900ECA
:100B3A0006CFF0A3EFF05391EF90E65D7420F0D06A
:0E0B4A0007D086D084D085D082D083D0E03210
:010B5800326A
:010B59003269
:010B5A003268
:010B5B003267
:010B5C003266
:010B5D003265
:010B5E003264
:010B5F003263
:010B60003262
:010B61003261
:010B62003260
:010B6300325F
:010B6400325E
:010B6500325D
:010B6600325C
:010B6700325B
:010B6800325A
:010B69003259
:010B6A003258
:010B6B003257
:010B6C003256
:010B6D003255
:010B6E003254
:010B6F003253
:010B70003252
:010B71003251
:010B72003250
:010B7300324F
:010B7400324E
:010B7500324D
:010B7600324C
:010B7700324B
:010B7800324A
:010B79003249
:010B7A003248
:010B7B003247
:040B7C00AB07AA0613
:100B8000E4FC900E11E06011EAFFAE040CEE243696
:100B9000F582E4340EF583EFF0EBAE040C74362EE0
:100BA000F582E4340EF583EBF0AE040C74362EF5CA
:100BB00082E4340EF583EDF0900E0FE0FFAD047A81
:0E0BC0000E7B3612106E900E0FE0FF120E0A22
:010BCE002204
:100BCF00900E30EEF0A3EFF0A3EDF0A3EAF0A3EB5D
:010BDF00F025
:100BE000E4A3F0900E32E0FF900E35E0FDC39F507D
:100BF00028900E30E475F00112117AAFF0FE900EDD
:100C000033E0FAA3E02DF582E43AF583E0FD120B20
:090C10007C900E35E004F080CA6E
:010C190022B8
:100C1A00900E30EEF0A3EFF0A3EDF0A3EAF0A3EB11
:010C2A00F0D9
:100C2B00E4FDA3F0900E11E06014900E30E0FFAEE7
:100C3B00050DEE2436F582E4340EF583EFF0900EBD
:100C4B0031E0FFAE050D74362EF582E4340EF583DC
:100C5B00EFF0900E0FE0FF7A0E7B3612106E900EB7
:100C6B000FE0FF900E32E0FDA3E0FAA3E0FB1210C1
:010C7B002652
:010C7C002255
:03004300020D00AB
:03005300020D009B
:100D00000209DD00020A3000020A0B00020AC300D9
:100D1000020A5500020AEA00020B5800020B5900B1
:100D2000020B5A00020B5B00020B5C00020B5D0021
:100D3000020B5E00020B5F00020B6000020B610001
:100D4000020B6200020B5900020B6300020B6400ED
:100D5000020B6500020B6600020B6700020B6800C5
:100D6000020B6900020B5900020B5900020B5900DB
:100D7000020B6A00020B6B00020B6C00020B6D0091
:100D8000020B6E00020B6F00020B7000020B710071
:100D9000020B7200020B7300020B7400020B750051
:100DA000020B7600020B7700020B7800020B790031
:080DB000020B7A00020B7B002C
:100C7D0090E682E030E004E020E60B90E682E03082
:100C8D00E119E030E71590E680E04401F07F147E35
:0C0C9D0000120DB890E680E054FEF0223A
:100CA90090E682E044C0F090E681F04387010000BD
:040CB9000000002215
:100CCE0030040990E680E0440AF0800790E680E068
:100CDE004408F07FDC7E05120DB890E65D74FFF0DF
:0F0CEE0090E65FF05391EF90E680E054F7F0222C
:100DB800900E30EEF0A3EFF090E600E05418700DBE
:100DC800900E30E0C313F0A3E013F0801790E60014
:100DD800E05418FFBF100D900E31E025E0F0900EA2
:100DE80030E033F0900E3074FFF5F012117A45F0D0
:080DF8006005120CBD80ED2224
:0A0E0000E4900E17F0D2E9D2AF2201
:100E0A0090E678E020E6F9C2E990E678E04480F0DE
:100E1A00EF25E090E679F090E678E030E0F990E6A8
:100E2A0078E04440F090E678E020E6F990E678E051
:060E3A0030E1D6D2E922EE
:100E4000A90790E678E020E6F9900E17E070299067
:100E5000E678E04480F0AF01EF25E090E679F0908D
:100E60000E12EDF0AF03A9077B01A31211E7E49086
:0A0E70000E16F0A304F0D322C322F3
:100E7A00A90790E678E020E6F9900E17E0702C902A
:100E8A00E678E04480F0AF01EF25E0440190E6798E
:100E9A00F0900E12EDF0AF03A9077B01A31211E740
:0D0EAA00E4900E16F0A37403F0D322C322CF
:03004B00020EB7EB
:100EB700C0E0C0F0C083C082C085C084C08675868C
:100EC70000C0D0C000C001C002C003C00790E678D0
:100ED700E030E209900E177406F0020FD890E6781A
:100EE700E020E10E900E17E0640260067407F0023E
:100EF7000FD8900E17E024FE607614604424FE702D
:100F070003020FC524FC7003020FD32408600302F9
:100F17000FD8900E131211DE900E16E0FF04F08F1B
:100F27008275830012111590E679F0900E12E0FF9A
:100F3700900E16E06F6003020FD8A37405F0020F3E
:100F4700D890E679E0FF900E131211DE900E16E0AE
:100F5700F582758300EF121142900E177402F0901C
:100F67000E12E06401706A90E678E04420F0806138
:100F7700900E12E024FEFF900E16E0B5070790E6EC
:100F870078E04420F0900E12E014FF900E16E0B5C2
:100F9700070C90E678E04440F0900E17E4F090E6F6
:100FA70079E0FF900E131211DE900E16E0F58275B0
:100FB7008300EF121142900E16E004F0801390E6C2
:100FC70078E04440F0900E17E4F08005900E17E4A7
:100FD700F05391DFD007D003D002D001D000D0D09A
:0F0FE700D086D084D085D082D083D0F0D0E032B5
:020FF600A90749
:100FF800900E0CE0FEA3E0FF8F828E83A3E06403D3
:101008007017AD0119ED7001228F828E83E07C008C
:0D1018002FFDEC3EFEAF0580DF7E007F0067
:0110250022A8
:10102600120E7A900E38E4F0A374FAF0900E17E0E0
:1010360024FA6012146007240770137F0822E490D4
:101046000E17F07F0722E4900E17F07F0622120C8F
:10105600BD900E3874FFF5F0121164900E38E070F2
:0710660002A3E070C77F0642
:01106D002260
:10106E00120E40900E39E4F0A374FAF0900E17E0D1
:10107E0024FA6012146007240770137F0822E4908C
:10108E000E17F07F0722E4900E17F07F0622120C47
:10109E00BD900E3974FFF5F0121164900E39E070A8
:0710AE0002A3E070C77F06FA
:0110B5002218
:0A10B600900E2AEFF0900E2CEBF0E4
:1010C000ED600BE06008A3E0FEA3E04E70037F0834
:1010D00022900E2AE0FF900E2DE0FAA3E0FB121002
:1010E0006E900E2FEFF064086003E0FF22120CBD3B
:1010F000900E2AE0FF900E2CE0FDA3E0FAA3E0FBA7
:08110000121026900E2FEFF0F3
:0111080022C4
:100CBD007400F58690FDA57C05A3E582458370F94A
:010CCD002204
:03000000021109E1
:0C110900787FE4F6D8FD7581200200809C
:10111500BB010CE58229F582E5833AF583E022508F
:1011250006E92582F8E622BBFE06E92582F8E222D9
:0D113500E58229F582E5833AF583E49322F3
:10114200F8BB010DE58229F582E5833AF583E8F0E3
:10115200225006E92582C8F622BBFE05E92582C88F
:02116200F22277
:10116400C5F0F8A3E028F0C5F0F8E5821582700216
:061174001583E038F022B3
:10117A00A3F8E0C5F025F0F0E58215827002158328
:06118A00E0C838F0E82285
:10119000EB9FF5F0EA9E42F0E99D42F0E89C45F0B5
:0111A000222C
:0C11A100ECF0A3EDF0A3EEF0A3EFF022C1
:1011AD00A8828583F0D083D0821211C41211C4128B
:1011BD0011C41211C4E473E493A3C583C5F0C583B0
:1011CD00C8C582C8F0A3C583C5F0C583C8C582C88C
:0111DD0022EF
:0911DE00E0FBA3E0FAA3E0F92212
:0911E700EBF0A3EAF0A3E9F02209
:00000001FF
:00000001FF
